{
  "contractName": "med_chain",
  "abi": [
    {
      "inputs": [],
      "payable": false,
      "stateMutability": "nonpayable",
      "type": "constructor"
    },
    {
      "constant": false,
      "inputs": [
        {
          "name": "aadhaar",
          "type": "uint256"
        },
        {
          "name": "age",
          "type": "uint256"
        },
        {
          "name": "name",
          "type": "string"
        },
        {
          "name": "dob",
          "type": "string"
        },
        {
          "name": "weight",
          "type": "uint256"
        },
        {
          "name": "sex",
          "type": "string"
        },
        {
          "name": "allergies",
          "type": "string"
        }
      ],
      "name": "add_paitent",
      "outputs": [],
      "payable": false,
      "stateMutability": "nonpayable",
      "type": "function"
    },
    {
      "constant": false,
      "inputs": [
        {
          "name": "id",
          "type": "uint256"
        },
        {
          "name": "license_no",
          "type": "uint256"
        },
        {
          "name": "name",
          "type": "string"
        },
        {
          "name": "specialisation",
          "type": "string"
        },
        {
          "name": "d_addr",
          "type": "address"
        }
      ],
      "name": "add_doctor",
      "outputs": [],
      "payable": false,
      "stateMutability": "nonpayable",
      "type": "function"
    },
    {
      "constant": false,
      "inputs": [
        {
          "name": "id",
          "type": "uint256"
        },
        {
          "name": "license_no",
          "type": "uint256"
        },
        {
          "name": "p_addr",
          "type": "address"
        }
      ],
      "name": "add_pharmacy",
      "outputs": [],
      "payable": false,
      "stateMutability": "nonpayable",
      "type": "function"
    },
    {
      "constant": true,
      "inputs": [
        {
          "name": "aadhaar",
          "type": "uint256"
        }
      ],
      "name": "lookup_paitent",
      "outputs": [
        {
          "name": "",
          "type": "uint256"
        },
        {
          "name": "",
          "type": "uint256"
        },
        {
          "name": "",
          "type": "string"
        },
        {
          "name": "",
          "type": "string"
        },
        {
          "name": "",
          "type": "string"
        },
        {
          "name": "",
          "type": "uint256"
        },
        {
          "name": "",
          "type": "string"
        }
      ],
      "payable": false,
      "stateMutability": "view",
      "type": "function"
    },
    {
      "constant": true,
      "inputs": [
        {
          "name": "aadhaar",
          "type": "uint256"
        }
      ],
      "name": "doctor_last_prescription",
      "outputs": [
        {
          "name": "",
          "type": "uint256"
        },
        {
          "name": "",
          "type": "string"
        },
        {
          "name": "",
          "type": "uint256"
        },
        {
          "name": "",
          "type": "string"
        },
        {
          "name": "",
          "type": "string"
        }
      ],
      "payable": false,
      "stateMutability": "view",
      "type": "function"
    },
    {
      "constant": true,
      "inputs": [
        {
          "name": "aadhaar",
          "type": "uint256"
        }
      ],
      "name": "medical_history_details",
      "outputs": [
        {
          "name": "",
          "type": "string"
        },
        {
          "name": "",
          "type": "string"
        },
        {
          "name": "",
          "type": "string"
        }
      ],
      "payable": false,
      "stateMutability": "view",
      "type": "function"
    },
    {
      "constant": true,
      "inputs": [
        {
          "name": "aadhaar",
          "type": "uint256"
        }
      ],
      "name": "medical_history",
      "outputs": [
        {
          "name": "",
          "type": "string"
        },
        {
          "name": "",
          "type": "string"
        },
        {
          "name": "",
          "type": "string"
        }
      ],
      "payable": false,
      "stateMutability": "view",
      "type": "function"
    },
    {
      "constant": false,
      "inputs": [
        {
          "name": "d_id",
          "type": "uint256"
        },
        {
          "name": "p_aadhar",
          "type": "uint256"
        },
        {
          "name": "disease",
          "type": "string"
        },
        {
          "name": "symptoms",
          "type": "string"
        },
        {
          "name": "medicine",
          "type": "string"
        },
        {
          "name": "time",
          "type": "string"
        }
      ],
      "name": "add_prescription",
      "outputs": [],
      "payable": false,
      "stateMutability": "nonpayable",
      "type": "function"
    },
    {
      "constant": true,
      "inputs": [
        {
          "name": "aadhaar",
          "type": "uint256"
        }
      ],
      "name": "last_prescription",
      "outputs": [
        {
          "name": "",
          "type": "string"
        }
      ],
      "payable": false,
      "stateMutability": "view",
      "type": "function"
    },
    {
      "constant": false,
      "inputs": [
        {
          "name": "aadhaar",
          "type": "uint256"
        },
        {
          "name": "pharmacy_id",
          "type": "uint256"
        },
        {
          "name": "time",
          "type": "string"
        }
      ],
      "name": "mark_prescription",
      "outputs": [],
      "payable": false,
      "stateMutability": "nonpayable",
      "type": "function"
    }
  ],
  "bytecode": "0x6080604052600160065534801561001557600080fd5b50336000806101000a81548173ffffffffffffffffffffffffffffffffffffffff021916908373ffffffffffffffffffffffffffffffffffffffff16021790555061266f806100656000396000f3fe608060405234801561001057600080fd5b506004361061009e5760003560e01c80636573fa2e116100665780636573fa2e146108a2578063b7c9a49a14610a21578063c392ba6c14610c21578063e85acbf214610eb5578063ea5b01a714610f5c5761009e565b80630699a986146100a357806327d36a8b1461017257806345a656e41461041057806349181c221461059d5780634e99e5741461071c575b600080fd5b610170600480360360608110156100b957600080fd5b810190808035906020019092919080359060200190929190803590602001906401000000008111156100ea57600080fd5b8201836020820111156100fc57600080fd5b8035906020019184600183028401116401000000008311171561011e57600080fd5b91908080601f016020809104026020016040519081016040528093929190818152602001838380828437600081840152601f19601f820116905080830192505050505050509192919290505050610fb4565b005b61040e600480360360e081101561018857600080fd5b810190808035906020019092919080359060200190929190803590602001906401000000008111156101b957600080fd5b8201836020820111156101cb57600080fd5b803590602001918460018302840111640100000000831117156101ed57600080fd5b91908080601f016020809104026020016040519081016040528093929190818152602001838380828437600081840152601f19601f8201169050808301925050505050505091929192908035906020019064010000000081111561025057600080fd5b82018360208201111561026257600080fd5b8035906020019184600183028401116401000000008311171561028457600080fd5b91908080601f016020809104026020016040519081016040528093929190818152602001838380828437600081840152601f19601f82011690508083019250505050505050919291929080359060200190929190803590602001906401000000008111156102f157600080fd5b82018360208201111561030357600080fd5b8035906020019184600183028401116401000000008311171561032557600080fd5b91908080601f016020809104026020016040519081016040528093929190818152602001838380828437600081840152601f19601f8201169050808301925050505050505091929192908035906020019064010000000081111561038857600080fd5b82018360208201111561039a57600080fd5b803590602001918460018302840111640100000000831117156103bc57600080fd5b91908080601f016020809104026020016040519081016040528093929190818152602001838380828437600081840152601f19601f82011690508083019250505050505050919291929050505061107a565b005b61043c6004803603602081101561042657600080fd5b8101908080359060200190929190505050611180565b60405180868152602001806020018581526020018060200180602001848103845288818151815260200191508051906020019080838360005b83811015610490578082015181840152602081019050610475565b50505050905090810190601f1680156104bd5780820380516001836020036101000a031916815260200191505b50848103835286818151815260200191508051906020019080838360005b838110156104f65780820151818401526020810190506104db565b50505050905090810190601f1680156105235780820380516001836020036101000a031916815260200191505b50848103825285818151815260200191508051906020019080838360005b8381101561055c578082015181840152602081019050610541565b50505050905090810190601f1680156105895780820380516001836020036101000a031916815260200191505b509850505050505050505060405180910390f35b6105c9600480360360208110156105b357600080fd5b810190808035906020019092919050505061153e565b60405180806020018060200180602001848103845287818151815260200191508051906020019080838360005b838110156106115780820151818401526020810190506105f6565b50505050905090810190601f16801561063e5780820380516001836020036101000a031916815260200191505b50848103835286818151815260200191508051906020019080838360005b8381101561067757808201518184015260208101905061065c565b50505050905090810190601f1680156106a45780820380516001836020036101000a031916815260200191505b50848103825285818151815260200191508051906020019080838360005b838110156106dd5780820151818401526020810190506106c2565b50505050905090810190601f16801561070a5780820380516001836020036101000a031916815260200191505b50965050505050505060405180910390f35b6108a0600480360360a081101561073257600080fd5b8101908080359060200190929190803590602001909291908035906020019064010000000081111561076357600080fd5b82018360208201111561077557600080fd5b8035906020019184600183028401116401000000008311171561079757600080fd5b91908080601f016020809104026020016040519081016040528093929190818152602001838380828437600081840152601f19601f820116905080830192505050505050509192919290803590602001906401000000008111156107fa57600080fd5b82018360208201111561080c57600080fd5b8035906020019184600183028401116401000000008311171561082e57600080fd5b91908080601f016020809104026020016040519081016040528093929190818152602001838380828437600081840152601f19601f820116905080830192505050505050509192919290803573ffffffffffffffffffffffffffffffffffffffff1690602001909291905050506118e7565b005b6108ce600480360360208110156108b857600080fd5b81019080803590602001909291905050506119cf565b60405180806020018060200180602001848103845287818151815260200191508051906020019080838360005b838110156109165780820151818401526020810190506108fb565b50505050905090810190601f1680156109435780820380516001836020036101000a031916815260200191505b50848103835286818151815260200191508051906020019080838360005b8381101561097c578082015181840152602081019050610961565b50505050905090810190601f1680156109a95780820380516001836020036101000a031916815260200191505b50848103825285818151815260200191508051906020019080838360005b838110156109e25780820151818401526020810190506109c7565b50505050905090810190601f168015610a0f5780820380516001836020036101000a031916815260200191505b50965050505050505060405180910390f35b610a4d60048036036020811015610a3757600080fd5b8101908080359060200190929190505050611c58565b604051808881526020018781526020018060200180602001806020018681526020018060200185810385528a818151815260200191508051906020019080838360005b83811015610aab578082015181840152602081019050610a90565b50505050905090810190601f168015610ad85780820380516001836020036101000a031916815260200191505b50858103845289818151815260200191508051906020019080838360005b83811015610b11578082015181840152602081019050610af6565b50505050905090810190601f168015610b3e5780820380516001836020036101000a031916815260200191505b50858103835288818151815260200191508051906020019080838360005b83811015610b77578082015181840152602081019050610b5c565b50505050905090810190601f168015610ba45780820380516001836020036101000a031916815260200191505b50858103825286818151815260200191508051906020019080838360005b83811015610bdd578082015181840152602081019050610bc2565b50505050905090810190601f168015610c0a5780820380516001836020036101000a031916815260200191505b509b50505050505050505050505060405180910390f35b610eb3600480360360c0811015610c3757600080fd5b81019080803590602001909291908035906020019092919080359060200190640100000000811115610c6857600080fd5b820183602082011115610c7a57600080fd5b80359060200191846001830284011164010000000083111715610c9c57600080fd5b91908080601f016020809104026020016040519081016040528093929190818152602001838380828437600081840152601f19601f82011690508083019250505050505050919291929080359060200190640100000000811115610cff57600080fd5b820183602082011115610d1157600080fd5b80359060200191846001830284011164010000000083111715610d3357600080fd5b91908080601f016020809104026020016040519081016040528093929190818152602001838380828437600081840152601f19601f82011690508083019250505050505050919291929080359060200190640100000000811115610d9657600080fd5b820183602082011115610da857600080fd5b80359060200191846001830284011164010000000083111715610dca57600080fd5b91908080601f016020809104026020016040519081016040528093929190818152602001838380828437600081840152601f19601f82011690508083019250505050505050919291929080359060200190640100000000811115610e2d57600080fd5b820183602082011115610e3f57600080fd5b80359060200191846001830284011164010000000083111715610e6157600080fd5b91908080601f016020809104026020016040519081016040528093929190818152602001838380828437600081840152601f19601f820116905080830192505050505050509192919290505050611f8a565b005b610ee160048036036020811015610ecb57600080fd5b81019080803590602001909291905050506120ed565b6040518080602001828103825283818151815260200191508051906020019080838360005b83811015610f21578082015181840152602081019050610f06565b50505050905090810190601f168015610f4e5780820380516001836020036101000a031916815260200191505b509250505060405180910390f35b610fb260048036036060811015610f7257600080fd5b810190808035906020019092919080359060200190929190803573ffffffffffffffffffffffffffffffffffffffff1690602001909291905050506121f1565b005b6000600160008581526020019081526020016000206007016001806000878152602001908152602001600020600701805490500381548110610ff257fe5b9060005260206000200154905082600460008381526020019081526020016000206007018190555060016004600083815260200190815260200160002060090160006101000a81548160ff0219169083151502179055508160046000838152602001908152602001600020600801908051906020019061107392919061259e565b5050505050565b866001600089815260200190815260200160002060000181905550856001600089815260200190815260200160002060010181905550846001600089815260200190815260200160002060020190805190602001906110da92919061259e565b508360016000898152602001908152602001600020600301908051906020019061110592919061259e565b508260016000898152602001908152602001600020600401819055508160016000898152602001908152602001600020600901908051906020019061114b92919061259e565b508060016000898152602001908152602001600020600501908051906020019061117692919061259e565b5050505050505050565b600060606000606080600460006001600089815260200190815260200160002060070160018060008b81526020019081526020016000206007018054905003815481106111c957fe5b906000526020600020015481526020019081526020016000206000015460046000600160008a815260200190815260200160002060070160018060008c815260200190815260200160002060070180549050038154811061122657fe5b9060005260206000200154815260200190815260200160002060050160046000600160008b815260200190815260200160002060070160018060008d815260200190815260200160002060070180549050038154811061128257fe5b906000526020600020015481526020019081526020016000206001015460046000600160008c815260200190815260200160002060070160018060008e81526020019081526020016000206007018054905003815481106112df57fe5b9060005260206000200154815260200190815260200160002060040160046000600160008d815260200190815260200160002060070160018060008f815260200190815260200160002060070180549050038154811061133b57fe5b90600052602060002001548152602001908152602001600020600601838054600181600116156101000203166002900480601f0160208091040260200160405190810160405280929190818152602001828054600181600116156101000203166002900480156113ec5780601f106113c1576101008083540402835291602001916113ec565b820191906000526020600020905b8154815290600101906020018083116113cf57829003601f168201915b50505050509350818054600181600116156101000203166002900480601f0160208091040260200160405190810160405280929190818152602001828054600181600116156101000203166002900480156114885780601f1061145d57610100808354040283529160200191611488565b820191906000526020600020905b81548152906001019060200180831161146b57829003601f168201915b50505050509150808054600181600116156101000203166002900480601f0160208091040260200160405190810160405280929190818152602001828054600181600116156101000203166002900480156115245780601f106114f957610100808354040283529160200191611524565b820191906000526020600020905b81548152906001019060200180831161150757829003601f168201915b505050505090509450945094509450945091939590929450565b6060806060806040518060400160405280600181526020017f2d00000000000000000000000000000000000000000000000000000000000000815250905060606040518060400160405280600181526020017f2d00000000000000000000000000000000000000000000000000000000000000815250905060606040518060400160405280600181526020017f2d00000000000000000000000000000000000000000000000000000000000000815250905060008090505b60016000898152602001908152602001600020600701805490508110156118d3576116fa8460046000600160008d8152602001908152602001600020600701858154811061164057fe5b906000526020600020015481526020019081526020016000206003018054600181600116156101000203166002900480601f0160208091040260200160405190810160405280929190818152602001828054600181600116156101000203166002900480156116f05780601f106116c5576101008083540402835291602001916116f0565b820191906000526020600020905b8154815290600101906020018083116116d357829003601f168201915b5050505050612281565b93506117df8360046000600160008d8152602001908152602001600020600701858154811061172557fe5b906000526020600020015481526020019081526020016000206005018054600181600116156101000203166002900480601f0160208091040260200160405190810160405280929190818152602001828054600181600116156101000203166002900480156117d55780601f106117aa576101008083540402835291602001916117d5565b820191906000526020600020905b8154815290600101906020018083116117b857829003601f168201915b5050505050612281565b92506118c48260046000600160008d8152602001908152602001600020600701858154811061180a57fe5b906000526020600020015481526020019081526020016000206006018054600181600116156101000203166002900480601f0160208091040260200160405190810160405280929190818152602001828054600181600116156101000203166002900480156118ba5780601f1061188f576101008083540402835291602001916118ba565b820191906000526020600020905b81548152906001019060200180831161189d57829003601f168201915b5050505050612281565b915080806001019150506115f6565b508282829550955095505050509193909250565b8460026000878152602001908152602001600020600001819055508360026000878152602001908152602001600020600101819055508260026000878152602001908152602001600020600201908051906020019061194792919061259e565b508160026000878152602001908152602001600020600301908051906020019061197292919061259e565b50806002600087815260200190815260200160002060040160006101000a81548173ffffffffffffffffffffffffffffffffffffffff021916908373ffffffffffffffffffffffffffffffffffffffff1602179055505050505050565b6060806060806040518060400160405280600181526020017f2d00000000000000000000000000000000000000000000000000000000000000815250905060606040518060400160405280600181526020017f2d00000000000000000000000000000000000000000000000000000000000000815250905060606040518060400160405280600181526020017f2d00000000000000000000000000000000000000000000000000000000000000815250905060008090505b6001600089815260200190815260200160002060070180549050811015611c4457611afb84611af660046000600160008e81526020019081526020016000206007018681548110611ad457fe5b9060005260206000200154815260200190815260200160002060000154612471565b612281565b9350611b5083611b4b60046000600160008e81526020019081526020016000206007018681548110611b2957fe5b9060005260206000200154815260200190815260200160002060010154612471565b612281565b9250611c358260046000600160008d81526020019081526020016000206007018581548110611b7b57fe5b906000526020600020015481526020019081526020016000206004018054600181600116156101000203166002900480601f016020809104026020016040519081016040528092919081815260200182805460018160011615610100020316600290048015611c2b5780601f10611c0057610100808354040283529160200191611c2b565b820191906000526020600020905b815481529060010190602001808311611c0e57829003601f168201915b5050505050612281565b91508080600101915050611a87565b508282829550955095505050509193909250565b6000806060806060600060606001600089815260200190815260200160002060000154600160008a815260200190815260200160002060010154600160008b8152602001908152602001600020600201600160008c8152602001908152602001600020600901600160008d8152602001908152602001600020600301600160008e815260200190815260200160002060040154600160008f8152602001908152602001600020600501848054600181600116156101000203166002900480601f016020809104026020016040519081016040528092919081815260200182805460018160011615610100020316600290048015611d965780601f10611d6b57610100808354040283529160200191611d96565b820191906000526020600020905b815481529060010190602001808311611d7957829003601f168201915b50505050509450838054600181600116156101000203166002900480601f016020809104026020016040519081016040528092919081815260200182805460018160011615610100020316600290048015611e325780601f10611e0757610100808354040283529160200191611e32565b820191906000526020600020905b815481529060010190602001808311611e1557829003601f168201915b50505050509350828054600181600116156101000203166002900480601f016020809104026020016040519081016040528092919081815260200182805460018160011615610100020316600290048015611ece5780601f10611ea357610100808354040283529160200191611ece565b820191906000526020600020905b815481529060010190602001808311611eb157829003601f168201915b50505050509250808054600181600116156101000203166002900480601f016020809104026020016040519081016040528092919081815260200182805460018160011615610100020316600290048015611f6a5780601f10611f3f57610100808354040283529160200191611f6a565b820191906000526020600020905b815481529060010190602001808311611f4d57829003601f168201915b505050505090509650965096509650965096509650919395979092949650565b600160008681526020019081526020016000206007016006549080600181540180825580915050906001820390600052602060002001600090919290919091505550600654600460006006548152602001908152602001600020600001819055508560046000600654815260200190815260200160002060010181905550846004600060065481526020019081526020016000206002018190555083600460006006548152602001908152602001600020600301908051906020019061205192919061259e565b5082600460006006548152602001908152602001600020600401908051906020019061207e92919061259e565b508160046000600654815260200190815260200160002060050190805190602001906120ab92919061259e565b508060046000600654815260200190815260200160002060060190805190602001906120d892919061259e565b50600160065401600681905550505050505050565b6060600060016000848152602001908152602001600020600701600180600086815260200190815260200160002060070180549050038154811061212d57fe5b90600052602060002001549050600460008281526020019081526020016000206005018054600181600116156101000203166002900480601f0160208091040260200160405190810160405280929190818152602001828054600181600116156101000203166002900480156121e45780601f106121b9576101008083540402835291602001916121e4565b820191906000526020600020905b8154815290600101906020018083116121c757829003601f168201915b5050505050915050919050565b826003600085815260200190815260200160002060000181905550816003600085815260200190815260200160002060010181905550806003600085815260200190815260200160002060020160006101000a81548173ffffffffffffffffffffffffffffffffffffffff021916908373ffffffffffffffffffffffffffffffffffffffff160217905550505050565b6060806040518060400160405280600181526020017f2d000000000000000000000000000000000000000000000000000000000000008152509050606083518251865101016040519080825280601f01601f1916602001820160405280156122f85781602001600182028038833980820191505090505b5090506060819050600080905060008090505b87518110156123795787818151811061232057fe5b602001015160f81c60f81b83838060010194508151811061233d57fe5b60200101907effffffffffffffffffffffffffffffffffffffffffffffffffffffffffffff1916908160001a905350808060010191505061230b565b5060008090505b84518110156123ee5784818151811061239557fe5b602001015160f81c60f81b8383806001019450815181106123b257fe5b60200101907effffffffffffffffffffffffffffffffffffffffffffffffffffffffffffff1916908160001a9053508080600101915050612380565b5060008090505b86518110156124635786818151811061240a57fe5b602001015160f81c60f81b83838060010194508151811061242757fe5b60200101907effffffffffffffffffffffffffffffffffffffffffffffffffffffffffffff1916908160001a90535080806001019150506123f5565b508194505050505092915050565b606060008214156124b9576040518060400160405280600181526020017f30000000000000000000000000000000000000000000000000000000000000008152509050612599565b600082905060005b600082146124e3578080600101915050600a82816124db57fe5b0491506124c1565b6060816040519080825280601f01601f1916602001820160405280156125185781602001600182028038833980820191505090505b50905060006001830390505b6000861461259157600a868161253657fe5b0660300160f81b8282806001900393508151811061255057fe5b60200101907effffffffffffffffffffffffffffffffffffffffffffffffffffffffffffff1916908160001a905350600a868161258957fe5b049550612524565b819450505050505b919050565b828054600181600116156101000203166002900490600052602060002090601f016020900481019282601f106125df57805160ff191683800117855561260d565b8280016001018555821561260d579182015b8281111561260c5782518255916020019190600101906125f1565b5b50905061261a919061261e565b5090565b61264091905b8082111561263c576000816000905550600101612624565b5090565b9056fea165627a7a72305820e1523cd31c58f02086ab3b5086b7eacf752ec18c446839dd97b2b7dcb46784520029",
  "source": "pragma solidity ^0.5.8;\n\ncontract med_chain {\n    address private oracle;\n\n    constructor() public {\n        oracle = msg.sender;\n    }\n\n    struct admin {\n        uint id;\n        address admin_address;\n    }\n\n    struct paitent {\n        uint aadhaar;\n        uint age;\n        string name;\n        string dob;\n        uint weight;\n        string allergies;\n        string disease_history;\n        uint[] prescription_ids;\n        uint[] doctor_ids;\n        string sex;\n    }\n\n    struct doctor {\n        uint id;\n        uint license_no;\n        string name;\n        string specialisation;\n        address doctor_address;\n    }\n\n    struct pharmacy {\n        uint id;\n        uint license_no;\n        address phar_addr;\n    }\n\n    struct prescription {\n        uint id;\n        uint doctor_id;\n        uint paitent_aadhaar;\n        string disease;\n        string symptoms;\n        string medicine;\n        string timestamp_prescribed;\n        uint pharmacy_id;\n        string timestamp_marked;\n        bool marked;\n    }\n\n    mapping(uint => paitent) paitent_aadhaar_mapping;\n    mapping(uint => doctor) doctor_id_mapping;\n    mapping(uint => pharmacy) pharmacy_id_mapping;\n    mapping(uint => prescription) prescription_id_mapping;\n    mapping(uint => admin) admin_id_mapping;\n    uint current_pres_id = 1;\n\n    modifier only_doctor(uint d_id) {\n        if (doctor_id_mapping[d_id].doctor_address == msg.sender) {\n            _;\n        } else {\n            revert();\n        }\n    }\n\n    modifier only_pharmacy(uint f_id) {\n        if (pharmacy_id_mapping[f_id].phar_addr == msg.sender) {\n            _;\n        } else {\n            revert();\n        }\n    }\n\n    modifier only_admin(uint a_id) {\n        if (admin_id_mapping[a_id].admin_address == msg.sender) {\n            _;\n        } else {\n            revert();\n        }\n    }\n\n    function strConcat(string memory _a, string memory _c) internal pure returns(string memory _concatenatedString) {\n        string memory _b = \"-\";\n        string memory abcde = new string(bytes(_a).length + bytes(_b).length + bytes(_c).length);\n        bytes memory babcde = bytes(abcde);\n        uint k = 0;\n        for (uint i = 0; i < bytes(_a).length; i++) {\n            babcde[k++] = bytes(_a)[i];\n        }\n        for (uint i = 0; i < bytes(_b).length; i++) {\n            babcde[k++] = bytes(_b)[i];\n        }\n        for (uint i = 0; i < bytes(_c).length; i++) {\n            babcde[k++] = bytes(_c)[i];\n        }\n        return string(babcde);\n    }\n\n    function add_paitent(uint aadhaar, uint age, string memory name, string memory dob, uint weight, string memory sex, string memory allergies) public {\n        paitent_aadhaar_mapping[aadhaar].aadhaar = aadhaar;\n        paitent_aadhaar_mapping[aadhaar].age = age;\n        paitent_aadhaar_mapping[aadhaar].name = name;\n        paitent_aadhaar_mapping[aadhaar].dob = dob;\n        paitent_aadhaar_mapping[aadhaar].weight = weight;\n        paitent_aadhaar_mapping[aadhaar].sex = sex;\n        paitent_aadhaar_mapping[aadhaar].allergies = allergies;\n    }\n\n    function add_doctor(uint id, uint license_no, string memory name, string memory specialisation, address d_addr) public {\n        doctor_id_mapping[id].id = id;\n        doctor_id_mapping[id].license_no = license_no;\n        doctor_id_mapping[id].name = name;\n        doctor_id_mapping[id].specialisation = specialisation;\n        doctor_id_mapping[id].doctor_address = d_addr;\n    }\n\n    function add_pharmacy(uint id, uint license_no, address p_addr) public {\n        pharmacy_id_mapping[id].id = id;\n        pharmacy_id_mapping[id].license_no = license_no;\n        pharmacy_id_mapping[id].phar_addr = p_addr;\n    }\n\n    function lookup_paitent(uint aadhaar) view public returns(uint, uint, string memory, string memory, string memory, uint, string memory) {\n        return (\n            paitent_aadhaar_mapping[aadhaar].aadhaar,\n            paitent_aadhaar_mapping[aadhaar].age,\n            paitent_aadhaar_mapping[aadhaar].name,\n            paitent_aadhaar_mapping[aadhaar].sex,\n            paitent_aadhaar_mapping[aadhaar].dob,\n            paitent_aadhaar_mapping[aadhaar].weight,\n            paitent_aadhaar_mapping[aadhaar].allergies\n        );\n    }\n\n    function doctor_last_prescription(uint aadhaar) view public returns(uint, string memory, uint, string memory, string memory) {\n        return (\n            prescription_id_mapping[paitent_aadhaar_mapping[aadhaar].prescription_ids[paitent_aadhaar_mapping[aadhaar].prescription_ids.length - 1]].id,\n            prescription_id_mapping[paitent_aadhaar_mapping[aadhaar].prescription_ids[paitent_aadhaar_mapping[aadhaar].prescription_ids.length - 1]].medicine,\n            prescription_id_mapping[paitent_aadhaar_mapping[aadhaar].prescription_ids[paitent_aadhaar_mapping[aadhaar].prescription_ids.length - 1]].doctor_id,\n            prescription_id_mapping[paitent_aadhaar_mapping[aadhaar].prescription_ids[paitent_aadhaar_mapping[aadhaar].prescription_ids.length - 1]].symptoms,\n            prescription_id_mapping[paitent_aadhaar_mapping[aadhaar].prescription_ids[paitent_aadhaar_mapping[aadhaar].prescription_ids.length - 1]].timestamp_prescribed\n        );\n    }\n\n    function uint2str(uint _i) internal pure returns(string memory _uintAsString) {\n        if (_i == 0) {\n            return \"0\";\n        }\n        uint j = _i;\n        uint len;\n        while (j != 0) {\n            len++;\n            j /= 10;\n        }\n        bytes memory bstr = new bytes(len);\n        uint k = len - 1;\n        while (_i != 0) {\n            bstr[k--] = byte(uint8(48 + _i % 10));\n            _i /= 10;\n        }\n        return string(bstr);\n    }\n\n    function medical_history_details(uint aadhaar) view public returns(string memory, string memory, string memory) {\n        string memory ids = \"-\";\n        string memory d_ids = \"-\";\n        string memory symptoms = \"-\";\n\n        for (uint i = 0; i < paitent_aadhaar_mapping[aadhaar].prescription_ids.length; i++) {\n            ids = strConcat(ids, uint2str(prescription_id_mapping[paitent_aadhaar_mapping[aadhaar].prescription_ids[i]].id));\n            d_ids = strConcat(d_ids, uint2str(prescription_id_mapping[paitent_aadhaar_mapping[aadhaar].prescription_ids[i]].doctor_id));\n            symptoms = strConcat(symptoms, prescription_id_mapping[paitent_aadhaar_mapping[aadhaar].prescription_ids[i]].symptoms);\n\n        }\n\n        return (ids, d_ids, symptoms);\n    }\n\n    function medical_history(uint aadhaar) view public returns(string memory, string memory, string memory) {\n        string memory dis = \"-\";\n        string memory med = \"-\";\n        string memory time = \"-\";\n        for (uint i = 0; i < paitent_aadhaar_mapping[aadhaar].prescription_ids.length; i++) {\n            dis = strConcat(dis, prescription_id_mapping[paitent_aadhaar_mapping[aadhaar].prescription_ids[i]].disease);\n            med = strConcat(med, prescription_id_mapping[paitent_aadhaar_mapping[aadhaar].prescription_ids[i]].medicine);\n            time = strConcat(time, prescription_id_mapping[paitent_aadhaar_mapping[aadhaar].prescription_ids[i]].timestamp_prescribed);\n        }\n\n        return (dis, med, time);\n    }\n\n    function add_prescription(uint d_id, uint p_aadhar, string memory disease, string memory symptoms, string memory medicine, string memory time) public {\n        paitent_aadhaar_mapping[p_aadhar].prescription_ids.push(current_pres_id);\n        prescription_id_mapping[current_pres_id].id = current_pres_id;\n        prescription_id_mapping[current_pres_id].doctor_id = d_id;\n        prescription_id_mapping[current_pres_id].paitent_aadhaar = p_aadhar;\n        prescription_id_mapping[current_pres_id].disease = disease;\n        prescription_id_mapping[current_pres_id].symptoms = symptoms;\n        prescription_id_mapping[current_pres_id].medicine = medicine;\n        prescription_id_mapping[current_pres_id].timestamp_prescribed = time;\n        current_pres_id = current_pres_id + 1;\n    }\n\n    function last_prescription(uint aadhaar) view public returns(string memory) {\n        uint last_presc_id = paitent_aadhaar_mapping[aadhaar].prescription_ids[paitent_aadhaar_mapping[aadhaar].prescription_ids.length - 1];\n        return (prescription_id_mapping[last_presc_id].medicine);\n\n    }\n\n    function mark_prescription(uint aadhaar, uint pharmacy_id, string memory time) public {\n        uint last_presc_id = paitent_aadhaar_mapping[aadhaar].prescription_ids[paitent_aadhaar_mapping[aadhaar].prescription_ids.length - 1];\n        prescription_id_mapping[last_presc_id].pharmacy_id = pharmacy_id;\n        prescription_id_mapping[last_presc_id].marked = true;\n        prescription_id_mapping[last_presc_id].timestamp_marked = time;\n    }\n\n}",
  "sourcePath": "/home/n3m0/Documents/integrated-krishna_contract_fn/contracts/med_chain.sol",
  "compiler": {
    "name": "solc",
    "version": "0.5.8+commit.23d335f2.Emscripten.clang"
  },
  "schemaVersion": "3.0.16",
  "updatedAt": "2019-11-05T22:47:42.538Z",
  "devdoc": {
    "methods": {}
  },
  "userdoc": {
    "methods": {}
  }
}