{
  "contractName": "med_chain",
  "abi": [
    {
      "inputs": [],
      "payable": false,
      "stateMutability": "nonpayable",
      "type": "constructor"
    },
    {
      "anonymous": false,
      "inputs": [
        {
          "indexed": false,
          "name": "aadhaar",
          "type": "uint256"
        }
      ],
      "name": "prescription_added",
      "type": "event"
    },
    {
      "constant": false,
      "inputs": [
        {
          "name": "aadhaar",
          "type": "uint256"
        },
        {
          "name": "name",
          "type": "string"
        },
        {
          "name": "dob",
          "type": "string"
        },
        {
          "name": "weight",
          "type": "uint256"
        },
        {
          "name": "sex",
          "type": "string"
        },
        {
          "name": "allergies",
          "type": "string"
        }
      ],
      "name": "add_patient",
      "outputs": [],
      "payable": false,
      "stateMutability": "nonpayable",
      "type": "function"
    },
    {
      "constant": false,
      "inputs": [
        {
          "name": "aadhaar",
          "type": "uint256"
        },
        {
          "name": "name",
          "type": "string"
        },
        {
          "name": "weight",
          "type": "uint256"
        },
        {
          "name": "sex",
          "type": "string"
        },
        {
          "name": "allergies",
          "type": "string"
        }
      ],
      "name": "edit_patient",
      "outputs": [],
      "payable": false,
      "stateMutability": "nonpayable",
      "type": "function"
    },
    {
      "constant": false,
      "inputs": [
        {
          "name": "id",
          "type": "uint256"
        },
        {
          "name": "license_no",
          "type": "uint256"
        },
        {
          "name": "name",
          "type": "string"
        },
        {
          "name": "specialisation",
          "type": "string"
        },
        {
          "name": "d_addr",
          "type": "address"
        }
      ],
      "name": "add_doctor",
      "outputs": [],
      "payable": false,
      "stateMutability": "nonpayable",
      "type": "function"
    },
    {
      "constant": false,
      "inputs": [
        {
          "name": "id",
          "type": "uint256"
        },
        {
          "name": "license_no",
          "type": "uint256"
        },
        {
          "name": "p_addr",
          "type": "address"
        }
      ],
      "name": "add_pharmacy",
      "outputs": [],
      "payable": false,
      "stateMutability": "nonpayable",
      "type": "function"
    },
    {
      "constant": false,
      "inputs": [
        {
          "name": "id",
          "type": "uint256"
        },
        {
          "name": "admin_address",
          "type": "address"
        }
      ],
      "name": "add_admin",
      "outputs": [],
      "payable": false,
      "stateMutability": "nonpayable",
      "type": "function"
    },
    {
      "constant": true,
      "inputs": [
        {
          "name": "aadhaar",
          "type": "uint256"
        }
      ],
      "name": "lookup_patient",
      "outputs": [
        {
          "name": "",
          "type": "uint256"
        },
        {
          "name": "",
          "type": "string"
        },
        {
          "name": "",
          "type": "string"
        },
        {
          "name": "",
          "type": "string"
        },
        {
          "name": "",
          "type": "uint256"
        },
        {
          "name": "",
          "type": "string"
        }
      ],
      "payable": false,
      "stateMutability": "view",
      "type": "function"
    },
    {
      "constant": true,
      "inputs": [
        {
          "name": "aadhaar",
          "type": "uint256"
        }
      ],
      "name": "doctor_last_prescription",
      "outputs": [
        {
          "name": "",
          "type": "uint256"
        },
        {
          "name": "",
          "type": "string"
        },
        {
          "name": "",
          "type": "uint256"
        },
        {
          "name": "",
          "type": "string"
        },
        {
          "name": "",
          "type": "string"
        }
      ],
      "payable": false,
      "stateMutability": "view",
      "type": "function"
    },
    {
      "constant": true,
      "inputs": [
        {
          "name": "aadhaar",
          "type": "uint256"
        }
      ],
      "name": "medical_history_details",
      "outputs": [
        {
          "name": "",
          "type": "string"
        },
        {
          "name": "",
          "type": "string"
        },
        {
          "name": "",
          "type": "string"
        }
      ],
      "payable": false,
      "stateMutability": "view",
      "type": "function"
    },
    {
      "constant": true,
      "inputs": [
        {
          "name": "aadhaar",
          "type": "uint256"
        }
      ],
      "name": "medical_history",
      "outputs": [
        {
          "name": "",
          "type": "string"
        },
        {
          "name": "",
          "type": "string"
        },
        {
          "name": "",
          "type": "string"
        }
      ],
      "payable": false,
      "stateMutability": "view",
      "type": "function"
    },
    {
      "constant": false,
      "inputs": [
        {
          "name": "d_id",
          "type": "uint256"
        },
        {
          "name": "p_aadhar",
          "type": "uint256"
        },
        {
          "name": "disease",
          "type": "string"
        },
        {
          "name": "symptoms",
          "type": "string"
        },
        {
          "name": "medicine",
          "type": "string"
        },
        {
          "name": "time",
          "type": "string"
        }
      ],
      "name": "add_prescription",
      "outputs": [],
      "payable": false,
      "stateMutability": "nonpayable",
      "type": "function"
    },
    {
      "constant": true,
      "inputs": [
        {
          "name": "aadhaar",
          "type": "uint256"
        }
      ],
      "name": "last_prescription",
      "outputs": [
        {
          "name": "",
          "type": "string"
        }
      ],
      "payable": false,
      "stateMutability": "view",
      "type": "function"
    },
    {
      "constant": false,
      "inputs": [
        {
          "name": "aadhaar",
          "type": "uint256"
        },
        {
          "name": "pharmacy_id",
          "type": "uint256"
        },
        {
          "name": "time",
          "type": "string"
        }
      ],
      "name": "mark_prescription",
      "outputs": [],
      "payable": false,
      "stateMutability": "nonpayable",
      "type": "function"
    }
  ],
  "bytecode": "0x6080604052600160005534801561001557600080fd5b5033600160006101000a81548173ffffffffffffffffffffffffffffffffffffffff021916908373ffffffffffffffffffffffffffffffffffffffff1602179055506003600960003373ffffffffffffffffffffffffffffffffffffffff1673ffffffffffffffffffffffffffffffffffffffff16815260200190815260200160002060006101000a81548160ff021916908360038111156100b357fe5b02179055506131c2806100c76000396000f3fe608060405234801561001057600080fd5b50600436106100b45760003560e01c80636b681d77116100715780636b681d77146109925780637a430b8414610c26578063a53c7c3e14610c74578063c392ba6c14610e71578063e85acbf214611105578063ea5b01a7146111ac576100b4565b80630699a986146100b957806345a656e41461018857806345b918631461031557806349181c221461050e5780634e99e5741461068d5780636573fa2e14610813575b600080fd5b610186600480360360608110156100cf57600080fd5b8101908080359060200190929190803590602001909291908035906020019064010000000081111561010057600080fd5b82018360208201111561011257600080fd5b8035906020019184600183028401116401000000008311171561013457600080fd5b91908080601f016020809104026020016040519081016040528093929190818152602001838380828437600081840152601f19601f820116905080830192505050505050509192919290505050611204565b005b6101b46004803603602081101561019e57600080fd5b81019080803590602001909291905050506113b5565b60405180868152602001806020018581526020018060200180602001848103845288818151815260200191508051906020019080838360005b838110156102085780820151818401526020810190506101ed565b50505050905090810190601f1680156102355780820380516001836020036101000a031916815260200191505b50848103835286818151815260200191508051906020019080838360005b8381101561026e578082015181840152602081019050610253565b50505050905090810190601f16801561029b5780820380516001836020036101000a031916815260200191505b50848103825285818151815260200191508051906020019080838360005b838110156102d45780820151818401526020810190506102b9565b50505050905090810190601f1680156103015780820380516001836020036101000a031916815260200191505b509850505050505050505060405180910390f35b6103416004803603602081101561032b57600080fd5b8101908080359060200190929190505050611778565b604051808781526020018060200180602001806020018681526020018060200185810385528a818151815260200191508051906020019080838360005b8381101561039957808201518184015260208101905061037e565b50505050905090810190601f1680156103c65780820380516001836020036101000a031916815260200191505b50858103845289818151815260200191508051906020019080838360005b838110156103ff5780820151818401526020810190506103e4565b50505050905090810190601f16801561042c5780820380516001836020036101000a031916815260200191505b50858103835288818151815260200191508051906020019080838360005b8381101561046557808201518184015260208101905061044a565b50505050905090810190601f1680156104925780820380516001836020036101000a031916815260200191505b50858103825286818151815260200191508051906020019080838360005b838110156104cb5780820151818401526020810190506104b0565b50505050905090810190601f1680156104f85780820380516001836020036101000a031916815260200191505b509a505050505050505050505060405180910390f35b61053a6004803603602081101561052457600080fd5b8101908080359060200190929190505050611a8e565b60405180806020018060200180602001848103845287818151815260200191508051906020019080838360005b83811015610582578082015181840152602081019050610567565b50505050905090810190601f1680156105af5780820380516001836020036101000a031916815260200191505b50848103835286818151815260200191508051906020019080838360005b838110156105e85780820151818401526020810190506105cd565b50505050905090810190601f1680156106155780820380516001836020036101000a031916815260200191505b50848103825285818151815260200191508051906020019080838360005b8381101561064e578082015181840152602081019050610633565b50505050905090810190601f16801561067b5780820380516001836020036101000a031916815260200191505b50965050505050505060405180910390f35b610811600480360360a08110156106a357600080fd5b810190808035906020019092919080359060200190929190803590602001906401000000008111156106d457600080fd5b8201836020820111156106e657600080fd5b8035906020019184600183028401116401000000008311171561070857600080fd5b91908080601f016020809104026020016040519081016040528093929190818152602001838380828437600081840152601f19601f8201169050808301925050505050505091929192908035906020019064010000000081111561076b57600080fd5b82018360208201111561077d57600080fd5b8035906020019184600183028401116401000000008311171561079f57600080fd5b91908080601f016020809104026020016040519081016040528093929190818152602001838380828437600081840152601f19601f820116905080830192505050505050509192919290803573ffffffffffffffffffffffffffffffffffffffff169060200190929190505050611e37565b005b61083f6004803603602081101561082957600080fd5b810190808035906020019092919050505061204a565b60405180806020018060200180602001848103845287818151815260200191508051906020019080838360005b8381101561088757808201518184015260208101905061086c565b50505050905090810190601f1680156108b45780820380516001836020036101000a031916815260200191505b50848103835286818151815260200191508051906020019080838360005b838110156108ed5780820151818401526020810190506108d2565b50505050905090810190601f16801561091a5780820380516001836020036101000a031916815260200191505b50848103825285818151815260200191508051906020019080838360005b83811015610953578082015181840152602081019050610938565b50505050905090810190601f1680156109805780820380516001836020036101000a031916815260200191505b50965050505050505060405180910390f35b610c24600480360360c08110156109a857600080fd5b8101908080359060200190929190803590602001906401000000008111156109cf57600080fd5b8201836020820111156109e157600080fd5b80359060200191846001830284011164010000000083111715610a0357600080fd5b91908080601f016020809104026020016040519081016040528093929190818152602001838380828437600081840152601f19601f82011690508083019250505050505050919291929080359060200190640100000000811115610a6657600080fd5b820183602082011115610a7857600080fd5b80359060200191846001830284011164010000000083111715610a9a57600080fd5b91908080601f016020809104026020016040519081016040528093929190818152602001838380828437600081840152601f19601f8201169050808301925050505050505091929192908035906020019092919080359060200190640100000000811115610b0757600080fd5b820183602082011115610b1957600080fd5b80359060200191846001830284011164010000000083111715610b3b57600080fd5b91908080601f016020809104026020016040519081016040528093929190818152602001838380828437600081840152601f19601f82011690508083019250505050505050919291929080359060200190640100000000811115610b9e57600080fd5b820183602082011115610bb057600080fd5b80359060200191846001830284011164010000000083111715610bd257600080fd5b91908080601f016020809104026020016040519081016040528093929190818152602001838380828437600081840152601f19601f8201169050808301925050505050505091929192905050506122d3565b005b610c7260048036036040811015610c3c57600080fd5b8101908080359060200190929190803573ffffffffffffffffffffffffffffffffffffffff169060200190929190505050612487565b005b610e6f600480360360a0811015610c8a57600080fd5b810190808035906020019092919080359060200190640100000000811115610cb157600080fd5b820183602082011115610cc357600080fd5b80359060200191846001830284011164010000000083111715610ce557600080fd5b91908080601f016020809104026020016040519081016040528093929190818152602001838380828437600081840152601f19601f8201169050808301925050505050505091929192908035906020019092919080359060200190640100000000811115610d5257600080fd5b820183602082011115610d6457600080fd5b80359060200191846001830284011164010000000083111715610d8657600080fd5b91908080601f016020809104026020016040519081016040528093929190818152602001838380828437600081840152601f19601f82011690508083019250505050505050919291929080359060200190640100000000811115610de957600080fd5b820183602082011115610dfb57600080fd5b80359060200191846001830284011164010000000083111715610e1d57600080fd5b91908080601f016020809104026020016040519081016040528093929190818152602001838380828437600081840152601f19601f8201169050808301925050505050505091929192905050506125da565b005b611103600480360360c0811015610e8757600080fd5b81019080803590602001909291908035906020019092919080359060200190640100000000811115610eb857600080fd5b820183602082011115610eca57600080fd5b80359060200191846001830284011164010000000083111715610eec57600080fd5b91908080601f016020809104026020016040519081016040528093929190818152602001838380828437600081840152601f19601f82011690508083019250505050505050919291929080359060200190640100000000811115610f4f57600080fd5b820183602082011115610f6157600080fd5b80359060200191846001830284011164010000000083111715610f8357600080fd5b91908080601f016020809104026020016040519081016040528093929190818152602001838380828437600081840152601f19601f82011690508083019250505050505050919291929080359060200190640100000000811115610fe657600080fd5b820183602082011115610ff857600080fd5b8035906020019184600183028401116401000000008311171561101a57600080fd5b91908080601f016020809104026020016040519081016040528093929190818152602001838380828437600081840152601f19601f8201169050808301925050505050505091929192908035906020019064010000000081111561107d57600080fd5b82018360208201111561108f57600080fd5b803590602001918460018302840111640100000000831117156110b157600080fd5b91908080601f016020809104026020016040519081016040528093929190818152602001838380828437600081840152601f19601f8201169050808301925050505050505091929192905050506127d3565b005b6111316004803603602081101561111b57600080fd5b8101908080359060200190929190505050612a39565b6040518080602001828103825283818151815260200191508051906020019080838360005b83811015611171578082015181840152602081019050611156565b50505050905090810190601f16801561119e5780820380516001836020036101000a031916815260200191505b509250505060405180910390f35b611202600480360360608110156111c257600080fd5b810190808035906020019092919080359060200190929190803573ffffffffffffffffffffffffffffffffffffffff169060200190929190505050612bf3565b005b60001515600560006002600087815260200190815260200160002060060160016002600089815260200190815260200160002060060180549050038154811061124957fe5b9060005260206000200154815260200190815260200160002060090160009054906101000a900460ff1615151415611342576000600260008581526020019081526020016000206006016001600260008781526020019081526020016000206006018054905003815481106112ba57fe5b9060005260206000200154905082600560008381526020019081526020016000206007018190555060016005600083815260200190815260200160002060090160006101000a81548160ff0219169083151502179055508160056000838152602001908152602001600020600801908051906020019061133b9291906130ae565b50506113b0565b6040517f08c379a000000000000000000000000000000000000000000000000000000000815260040180806020018281038252601b8152602001807f507265736372697074696f6e20616c7265616479206d61726b6564000000000081525060200191505060405180910390fd5b505050565b60006060600060608060056000600260008981526020019081526020016000206006016001600260008b81526020019081526020016000206006018054905003815481106113ff57fe5b906000526020600020015481526020019081526020016000206000015460056000600260008a81526020019081526020016000206006016001600260008c815260200190815260200160002060060180549050038154811061145d57fe5b9060005260206000200154815260200190815260200160002060050160056000600260008b81526020019081526020016000206006016001600260008d81526020019081526020016000206006018054905003815481106114ba57fe5b906000526020600020015481526020019081526020016000206001015460056000600260008c81526020019081526020016000206006016001600260008e815260200190815260200160002060060180549050038154811061151857fe5b9060005260206000200154815260200190815260200160002060040160056000600260008d81526020019081526020016000206006016001600260008f815260200190815260200160002060060180549050038154811061157557fe5b90600052602060002001548152602001908152602001600020600601838054600181600116156101000203166002900480601f0160208091040260200160405190810160405280929190818152602001828054600181600116156101000203166002900480156116265780601f106115fb57610100808354040283529160200191611626565b820191906000526020600020905b81548152906001019060200180831161160957829003601f168201915b50505050509350818054600181600116156101000203166002900480601f0160208091040260200160405190810160405280929190818152602001828054600181600116156101000203166002900480156116c25780601f10611697576101008083540402835291602001916116c2565b820191906000526020600020905b8154815290600101906020018083116116a557829003601f168201915b50505050509150808054600181600116156101000203166002900480601f01602080910402602001604051908101604052809291908181526020018280546001816001161561010002031660029004801561175e5780601f106117335761010080835404028352916020019161175e565b820191906000526020600020905b81548152906001019060200180831161174157829003601f168201915b505050505090509450945094509450945091939590929450565b6000606080606060006060600260008881526020019081526020016000206000015460026000898152602001908152602001600020600101600260008a8152602001908152602001600020600801600260008b8152602001908152602001600020600201600260008c815260200190815260200160002060030154600260008d8152602001908152602001600020600401848054600181600116156101000203166002900480601f01602080910402602001604051908101604052809291908181526020018280546001816001161561010002031660029004801561189e5780601f106118735761010080835404028352916020019161189e565b820191906000526020600020905b81548152906001019060200180831161188157829003601f168201915b50505050509450838054600181600116156101000203166002900480601f01602080910402602001604051908101604052809291908181526020018280546001816001161561010002031660029004801561193a5780601f1061190f5761010080835404028352916020019161193a565b820191906000526020600020905b81548152906001019060200180831161191d57829003601f168201915b50505050509350828054600181600116156101000203166002900480601f0160208091040260200160405190810160405280929190818152602001828054600181600116156101000203166002900480156119d65780601f106119ab576101008083540402835291602001916119d6565b820191906000526020600020905b8154815290600101906020018083116119b957829003601f168201915b50505050509250808054600181600116156101000203166002900480601f016020809104026020016040519081016040528092919081815260200182805460018160011615610100020316600290048015611a725780601f10611a4757610100808354040283529160200191611a72565b820191906000526020600020905b815481529060010190602001808311611a5557829003601f168201915b5050505050905095509550955095509550955091939550919395565b6060806060806040518060400160405280600181526020017f2d00000000000000000000000000000000000000000000000000000000000000815250905060606040518060400160405280600181526020017f2d00000000000000000000000000000000000000000000000000000000000000815250905060606040518060400160405280600181526020017f2d00000000000000000000000000000000000000000000000000000000000000815250905060008090505b6002600089815260200190815260200160002060060180549050811015611e2357611c4a8460056000600260008d81526020019081526020016000206006018581548110611b9057fe5b906000526020600020015481526020019081526020016000206003018054600181600116156101000203166002900480601f016020809104026020016040519081016040528092919081815260200182805460018160011615610100020316600290048015611c405780601f10611c1557610100808354040283529160200191611c40565b820191906000526020600020905b815481529060010190602001808311611c2357829003601f168201915b5050505050612d91565b9350611d2f8360056000600260008d81526020019081526020016000206006018581548110611c7557fe5b906000526020600020015481526020019081526020016000206005018054600181600116156101000203166002900480601f016020809104026020016040519081016040528092919081815260200182805460018160011615610100020316600290048015611d255780601f10611cfa57610100808354040283529160200191611d25565b820191906000526020600020905b815481529060010190602001808311611d0857829003601f168201915b5050505050612d91565b9250611e148260056000600260008d81526020019081526020016000206006018581548110611d5a57fe5b906000526020600020015481526020019081526020016000206006018054600181600116156101000203166002900480601f016020809104026020016040519081016040528092919081815260200182805460018160011615610100020316600290048015611e0a5780601f10611ddf57610100808354040283529160200191611e0a565b820191906000526020600020905b815481529060010190602001808311611ded57829003601f168201915b5050505050612d91565b91508080600101915050611b46565b508282829550955095505050509193909250565b6003600086815260200190815260200160002060040160149054906101000a900460ff16611fd55784600360008781526020019081526020016000206000018190555083600360008781526020019081526020016000206001018190555082600360008781526020019081526020016000206002019080519060200190611ebf9291906130ae565b5081600360008781526020019081526020016000206003019080519060200190611eea9291906130ae565b50806003600087815260200190815260200160002060040160006101000a81548173ffffffffffffffffffffffffffffffffffffffff021916908373ffffffffffffffffffffffffffffffffffffffff16021790555060016003600087815260200190815260200160002060040160146101000a81548160ff0219169083151502179055506000600760008373ffffffffffffffffffffffffffffffffffffffff1673ffffffffffffffffffffffffffffffffffffffff16815260200190815260200160002060006101000a81548160ff02191690836003811115611fcb57fe5b0217905550612043565b6040517f08c379a000000000000000000000000000000000000000000000000000000000815260040180806020018281038252601f8152602001807f446f63746f7220616c72656164792065786973747320696e2073797374656d0081525060200191505060405180910390fd5b5050505050565b6060806060806040518060400160405280600181526020017f2d00000000000000000000000000000000000000000000000000000000000000815250905060606040518060400160405280600181526020017f2d00000000000000000000000000000000000000000000000000000000000000815250905060606040518060400160405280600181526020017f2d00000000000000000000000000000000000000000000000000000000000000815250905060008090505b60026000898152602001908152602001600020600601805490508110156122bf576121768461217160056000600260008e8152602001908152602001600020600601868154811061214f57fe5b9060005260206000200154815260200190815260200160002060000154612f81565b612d91565b93506121cb836121c660056000600260008e815260200190815260200160002060060186815481106121a457fe5b9060005260206000200154815260200190815260200160002060010154612f81565b612d91565b92506122b08260056000600260008d815260200190815260200160002060060185815481106121f657fe5b906000526020600020015481526020019081526020016000206004018054600181600116156101000203166002900480601f0160208091040260200160405190810160405280929190818152602001828054600181600116156101000203166002900480156122a65780601f1061227b576101008083540402835291602001916122a6565b820191906000526020600020905b81548152906001019060200180831161228957829003601f168201915b5050505050612d91565b91508080600101915050612102565b508282829550955095505050509193909250565b6002600087815260200190815260200160002060090160009054906101000a900460ff1661241157856002600088815260200190815260200160002060000181905550846002600088815260200190815260200160002060010190805190602001906123409291906130ae565b508360026000888152602001908152602001600020600201908051906020019061236b9291906130ae565b50826002600088815260200190815260200160002060030181905550816002600088815260200190815260200160002060080190805190602001906123b19291906130ae565b50806002600088815260200190815260200160002060040190805190602001906123dc9291906130ae565b5060016002600088815260200190815260200160002060090160006101000a81548160ff02191690831515021790555061247f565b6040517f08c379a00000000000000000000000000000000000000000000000000000000081526004018080602001828103825260208152602001807f50617469656e7420616c72656164792065786973747320696e2073797374656d81525060200191505060405180910390fd5b505050505050565b6003600083815260200190815260200160002060040160149054906101000a900460ff1661258557816006600084815260200190815260200160002060000181905550806006600084815260200190815260200160002060010160006101000a81548173ffffffffffffffffffffffffffffffffffffffff021916908373ffffffffffffffffffffffffffffffffffffffff1602179055506002600a60008373ffffffffffffffffffffffffffffffffffffffff1673ffffffffffffffffffffffffffffffffffffffff16815260200190815260200160002060006101000a81548160ff0219169083600381111561257b57fe5b02179055506125d6565b6040517f08c379a00000000000000000000000000000000000000000000000000000000081526004018080602001828103825260228152602001806131546022913960400191505060405180910390fd5b5050565b6002600086815260200190815260200160002060090160009054906101000a900460ff161561275e578360026000878152602001908152602001600020600101908051906020019061262d9291906130ae565b50826002600087815260200190815260200160002060030181905550816002600087815260200190815260200160002060080190805190602001906126739291906130ae565b5061272c600260008781526020019081526020016000206004018054600181600116156101000203166002900480601f0160208091040260200160405190810160405280929190818152602001828054600181600116156101000203166002900480156127215780601f106126f657610100808354040283529160200191612721565b820191906000526020600020905b81548152906001019060200180831161270457829003601f168201915b505050505082612d91565b9050806002600087815260200190815260200160002060040190805190602001906127589291906130ae565b506127cc565b6040517f08c379a00000000000000000000000000000000000000000000000000000000081526004018080602001828103825260208152602001807f50617469656e7420646f65736e27742065786973747320696e2073797374656d81525060200191505060405180910390fd5b5050505050565b600115156002600087815260200190815260200160002060090160009054906101000a900460ff16151514156129c357600260008681526020019081526020016000206006016000549080600181540180825580915050906001820390600052602060002001600090919290919091505550600054600560008054815260200190815260200160002060000181905550856005600080548152602001908152602001600020600101819055508460056000805481526020019081526020016000206002018190555083600560008054815260200190815260200160002060030190805190602001906128c69291906130ae565b5082600560008054815260200190815260200160002060040190805190602001906128f29291906130ae565b50816005600080548152602001908152602001600020600501908051906020019061291e9291906130ae565b50806005600080548152602001908152602001600020600601908051906020019061294a9291906130ae565b506000600560008054815260200190815260200160002060090160006101000a81548160ff0219169083151502179055506001600054016000819055507fc87a1c64804b2a8519d4b76f105ddcfc4fbf5617efc504368b8d0e096251668c856040518082815260200191505060405180910390a1612a31565b6040517f08c379a00000000000000000000000000000000000000000000000000000000081526004018080602001828103825260178152602001807f50617469656e7420646f6573206e6f742065786973747300000000000000000081525060200191505060405180910390fd5b505050505050565b6060600015156005600060026000868152602001908152602001600020600601600160026000888152602001908152602001600020600601805490500381548110612a8057fe5b9060005260206000200154815260200190815260200160002060090160009054906101000a900460ff1615151415612bb557600060026000848152602001908152602001600020600601600160026000868152602001908152602001600020600601805490500381548110612af157fe5b90600052602060002001549050600560008281526020019081526020016000206005018054600181600116156101000203166002900480601f016020809104026020016040519081016040528092919081815260200182805460018160011615610100020316600290048015612ba85780601f10612b7d57610100808354040283529160200191612ba8565b820191906000526020600020905b815481529060010190602001808311612b8b57829003601f168201915b5050505050915050612bee565b6040518060400160405280601b81526020017f507265736372697074696f6e20616c7265616479206d61726b6564000000000081525090505b919050565b6004600084815260200190815260200160002060020160149054906101000a900460ff16612d3b57826004600085815260200190815260200160002060000181905550816004600085815260200190815260200160002060010181905550806004600085815260200190815260200160002060020160006101000a81548173ffffffffffffffffffffffffffffffffffffffff021916908373ffffffffffffffffffffffffffffffffffffffff16021790555060016004600085815260200190815260200160002060020160146101000a81548160ff0219169083151502179055506001600860008373ffffffffffffffffffffffffffffffffffffffff1673ffffffffffffffffffffffffffffffffffffffff16815260200190815260200160002060006101000a81548160ff02191690836003811115612d3157fe5b0217905550612d8c565b6040517f08c379a00000000000000000000000000000000000000000000000000000000081526004018080602001828103825260218152602001806131766021913960400191505060405180910390fd5b505050565b6060806040518060400160405280600181526020017f2d000000000000000000000000000000000000000000000000000000000000008152509050606083518251865101016040519080825280601f01601f191660200182016040528015612e085781602001600182028038833980820191505090505b5090506060819050600080905060008090505b8751811015612e8957878181518110612e3057fe5b602001015160f81c60f81b838380600101945081518110612e4d57fe5b60200101907effffffffffffffffffffffffffffffffffffffffffffffffffffffffffffff1916908160001a9053508080600101915050612e1b565b5060008090505b8451811015612efe57848181518110612ea557fe5b602001015160f81c60f81b838380600101945081518110612ec257fe5b60200101907effffffffffffffffffffffffffffffffffffffffffffffffffffffffffffff1916908160001a9053508080600101915050612e90565b5060008090505b8651811015612f7357868181518110612f1a57fe5b602001015160f81c60f81b838380600101945081518110612f3757fe5b60200101907effffffffffffffffffffffffffffffffffffffffffffffffffffffffffffff1916908160001a9053508080600101915050612f05565b508194505050505092915050565b60606000821415612fc9576040518060400160405280600181526020017f300000000000000000000000000000000000000000000000000000000000000081525090506130a9565b600082905060005b60008214612ff3578080600101915050600a8281612feb57fe5b049150612fd1565b6060816040519080825280601f01601f1916602001820160405280156130285781602001600182028038833980820191505090505b50905060006001830390505b600086146130a157600a868161304657fe5b0660300160f81b8282806001900393508151811061306057fe5b60200101907effffffffffffffffffffffffffffffffffffffffffffffffffffffffffffff1916908160001a905350600a868161309957fe5b049550613034565b819450505050505b919050565b828054600181600116156101000203166002900490600052602060002090601f016020900481019282601f106130ef57805160ff191683800117855561311d565b8280016001018555821561311d579182015b8281111561311c578251825591602001919060010190613101565b5b50905061312a919061312e565b5090565b61315091905b8082111561314c576000816000905550600101613134565b5090565b9056fe41646d696e20616c72656164792065786973747320696e207468652073797374656d506861726d61637920616c72656164792065786973747320696e2073797374656da165627a7a7230582033e18f9b186927868432da21e2709602fa004690330cdbc98cfc92d8a46139e20029",
  "source": "pragma solidity ^0.5.8;\n\ncontract med_chain {\n    \n    //global variables\n    uint private current_pres_id = 1;\n    address private oracle;\n    enum auth {doc, phar, admin, oracle}\n\n    //constructor\n    constructor() public {\n        oracle = msg.sender;\n        oracle_auth[msg.sender] = auth.oracle;\n    }\n\n    //structs\n    struct admin {\n        uint id;\n        address admin_address;\n        bool exists;\n    }\n\n    struct patient {\n        uint aadhaar;\n        string name;\n        string dob;\n        uint weight;\n        string allergies;\n        string disease_history;\n        uint[] prescription_ids;\n        uint[] doctor_ids;\n        string sex;\n        bool exists;\n    }\n\n    struct doctor {\n        uint id;\n        uint license_no;\n        string name;\n        string specialisation;\n        address doctor_address;\n        bool exists;\n    }\n\n    struct pharmacy {\n        uint id;\n        uint license_no;\n        address phar_addr;\n        bool exists;\n    }\n\n    struct prescription {\n        uint id;\n        uint doctor_id;\n        uint patient_aadhaar;\n        string disease;\n        string symptoms;\n        string medicine;\n        string timestamp_prescribed;\n        uint pharmacy_id;\n        string timestamp_marked;\n        bool marked;\n    }\n\n    //mappings\n    mapping(uint => patient) patient_aadhaar_mapping;\n    mapping(uint => doctor) doctor_id_mapping;\n    mapping(uint => pharmacy) pharmacy_id_mapping;\n    mapping(uint => prescription) prescription_id_mapping;\n    mapping(uint => admin) admin_id_mapping;\n    mapping(address => auth) doctor_auth;\n    mapping(address => auth) pharmacy_auth;\n    mapping(address => auth) oracle_auth;\n    mapping(address => auth) admin_auth;\n    \n    //events\n    event prescription_added(uint aadhaar);\n\n    //modifiers\n    modifier only_doctor() {\n        if (doctor_auth[msg.sender] == auth.doc) {\n            _;\n        } else {\n            revert(\"Only Doctors can call this function\");\n        }\n    }\n\n    modifier only_pharmacy() {\n        if (pharmacy_auth[msg.sender] == auth.phar) {\n            _;\n        } else {\n            revert(\"Only Pharmacist can call this function\");\n        }\n    }\n\n    modifier only_admin() {\n        if (admin_auth[msg.sender] == auth.admin) {\n            _;\n        } else {\n            revert(\"Only admin can call this function\");\n        }\n    }\n    \n    modifier only_oracle() {\n        if (oracle_auth[msg.sender] == auth.oracle) {\n            _;\n        } else {\n            revert(\"Only oracle can call this function\");\n        }\n    }\n\n    //internal functions\n    function strConcat(string memory _a, string memory _c) internal pure returns(string memory _concatenatedString) {\n        string memory _b = \"-\";\n        string memory abcde = new string(bytes(_a).length + bytes(_b).length + bytes(_c).length);\n        bytes memory babcde = bytes(abcde);\n        uint k = 0;\n        for (uint i = 0; i < bytes(_a).length; i++) {\n            babcde[k++] = bytes(_a)[i];\n        }\n        for (uint i = 0; i < bytes(_b).length; i++) {\n            babcde[k++] = bytes(_b)[i];\n        }\n        for (uint i = 0; i < bytes(_c).length; i++) {\n            babcde[k++] = bytes(_c)[i];\n        }\n        return string(babcde);\n    }\n\n    function uint2str(uint _i) internal pure returns(string memory _uintAsString) {\n        if (_i == 0) {\n            return \"0\";\n        }\n        uint j = _i;\n        uint len;\n        while (j != 0) {\n            len++;\n            j /= 10;\n        }\n        bytes memory bstr = new bytes(len);\n        uint k = len - 1;\n        while (_i != 0) {\n            bstr[k--] = byte(uint8(48 + _i % 10));\n            _i /= 10;\n        }\n        return string(bstr);\n    }\n    \n\n    //external functions\n    function add_patient(uint aadhaar, string memory name, string memory dob, uint weight, string memory sex, string memory allergies) public {\n        if(!patient_aadhaar_mapping[aadhaar].exists){\n            patient_aadhaar_mapping[aadhaar].aadhaar = aadhaar;\n            patient_aadhaar_mapping[aadhaar].name = name;\n            patient_aadhaar_mapping[aadhaar].dob = dob;\n            patient_aadhaar_mapping[aadhaar].weight = weight;\n            patient_aadhaar_mapping[aadhaar].sex = sex;\n            patient_aadhaar_mapping[aadhaar].allergies = allergies;\n            patient_aadhaar_mapping[aadhaar].exists = true;\n        } else {\n            revert(\"Patient already exists in system\");\n        }\n    }\n\n    function edit_patient(uint aadhaar, string memory name, uint weight, string memory sex, string memory allergies) public {\n        if(patient_aadhaar_mapping[aadhaar].exists){\n            patient_aadhaar_mapping[aadhaar].name = name;\n            patient_aadhaar_mapping[aadhaar].weight = weight;\n            patient_aadhaar_mapping[aadhaar].sex = sex;\n            allergies = strConcat(patient_aadhaar_mapping[aadhaar].allergies, allergies);\n            patient_aadhaar_mapping[aadhaar].allergies = allergies;\n        } else {\n            revert(\"Patient doesn't exists in system\");\n        }\n    }\n\n    function add_doctor(uint id, uint license_no, string memory name, string memory specialisation, address d_addr) public {\n        if(!doctor_id_mapping[id].exists){\n            doctor_id_mapping[id].id = id;\n            doctor_id_mapping[id].license_no = license_no;\n            doctor_id_mapping[id].name = name;\n            doctor_id_mapping[id].specialisation = specialisation;\n            doctor_id_mapping[id].doctor_address = d_addr;\n            doctor_id_mapping[id].exists = true;\n            doctor_auth[d_addr] = auth.doc;\n        } else {\n            revert(\"Doctor already exists in system\");\n        }\n    }\n\n    function add_pharmacy(uint id, uint license_no, address p_addr) public {\n        if(!pharmacy_id_mapping[id].exists){\n            pharmacy_id_mapping[id].id = id;\n            pharmacy_id_mapping[id].license_no = license_no;\n            pharmacy_id_mapping[id].phar_addr = p_addr;\n            pharmacy_id_mapping[id].exists = true;\n            pharmacy_auth[p_addr] = auth.phar;\n        } else {\n            revert(\"Pharmacy already exists in system\");\n        }\n    }\n    \n    function add_admin(uint id, address admin_address) public {\n        if(!doctor_id_mapping[id].exists){\n            admin_id_mapping[id].id = id;\n            admin_id_mapping[id].admin_address = admin_address;\n            admin_auth[admin_address] = auth.admin;\n        } else {\n            revert(\"Admin already exists in the system\");\n        }\n    }\n\n    function lookup_patient(uint aadhaar) view public returns(uint, string memory, string memory, string memory, uint, string memory) {\n        return (\n            patient_aadhaar_mapping[aadhaar].aadhaar,\n            patient_aadhaar_mapping[aadhaar].name,\n            patient_aadhaar_mapping[aadhaar].sex,\n            patient_aadhaar_mapping[aadhaar].dob,\n            patient_aadhaar_mapping[aadhaar].weight,\n            patient_aadhaar_mapping[aadhaar].allergies\n        );\n    }\n\n    function doctor_last_prescription(uint aadhaar) view public returns(uint, string memory, uint, string memory, string memory) {\n        return (\n            prescription_id_mapping[patient_aadhaar_mapping[aadhaar].prescription_ids[patient_aadhaar_mapping[aadhaar].prescription_ids.length - 1]].id,\n            prescription_id_mapping[patient_aadhaar_mapping[aadhaar].prescription_ids[patient_aadhaar_mapping[aadhaar].prescription_ids.length - 1]].medicine,\n            prescription_id_mapping[patient_aadhaar_mapping[aadhaar].prescription_ids[patient_aadhaar_mapping[aadhaar].prescription_ids.length - 1]].doctor_id,\n            prescription_id_mapping[patient_aadhaar_mapping[aadhaar].prescription_ids[patient_aadhaar_mapping[aadhaar].prescription_ids.length - 1]].symptoms,\n            prescription_id_mapping[patient_aadhaar_mapping[aadhaar].prescription_ids[patient_aadhaar_mapping[aadhaar].prescription_ids.length - 1]].timestamp_prescribed\n        );\n    }\n\n    function medical_history_details(uint aadhaar) view public returns(string memory, string memory, string memory) {\n        string memory ids = \"-\";\n        string memory d_ids = \"-\";\n        string memory symptoms = \"-\";\n        for (uint i = 0; i < patient_aadhaar_mapping[aadhaar].prescription_ids.length; i++) {\n            ids = strConcat(ids, uint2str(prescription_id_mapping[patient_aadhaar_mapping[aadhaar].prescription_ids[i]].id));\n            d_ids = strConcat(d_ids, uint2str(prescription_id_mapping[patient_aadhaar_mapping[aadhaar].prescription_ids[i]].doctor_id));\n            symptoms = strConcat(symptoms, prescription_id_mapping[patient_aadhaar_mapping[aadhaar].prescription_ids[i]].symptoms);\n        }\n        return (ids, d_ids, symptoms);\n    }\n\n    function medical_history(uint aadhaar) view public returns(string memory, string memory, string memory) {\n        string memory dis = \"-\";\n        string memory med = \"-\";\n        string memory time = \"-\";\n        for (uint i = 0; i < patient_aadhaar_mapping[aadhaar].prescription_ids.length; i++) {\n            dis = strConcat(dis, prescription_id_mapping[patient_aadhaar_mapping[aadhaar].prescription_ids[i]].disease);\n            med = strConcat(med, prescription_id_mapping[patient_aadhaar_mapping[aadhaar].prescription_ids[i]].medicine);\n            time = strConcat(time, prescription_id_mapping[patient_aadhaar_mapping[aadhaar].prescription_ids[i]].timestamp_prescribed);\n        }\n        return (dis, med, time);\n    }\n\n    function add_prescription(uint d_id, uint p_aadhar, string memory disease, string memory symptoms, string memory medicine, string memory time) public {\n        if(patient_aadhaar_mapping[p_aadhar].exists == true){\n            patient_aadhaar_mapping[p_aadhar].prescription_ids.push(current_pres_id);\n            prescription_id_mapping[current_pres_id].id = current_pres_id;\n            prescription_id_mapping[current_pres_id].doctor_id = d_id;\n            prescription_id_mapping[current_pres_id].patient_aadhaar = p_aadhar;\n            prescription_id_mapping[current_pres_id].disease = disease;\n            prescription_id_mapping[current_pres_id].symptoms = symptoms;\n            prescription_id_mapping[current_pres_id].medicine = medicine;\n            prescription_id_mapping[current_pres_id].timestamp_prescribed = time;\n            prescription_id_mapping[current_pres_id].marked = false;\n            current_pres_id = current_pres_id + 1;\n            emit prescription_added(p_aadhar);\n        } else {\n            revert(\"Patient does not exists\");\n        }\n    }\n\n    function last_prescription(uint aadhaar) view public returns(string memory) {\n        if(prescription_id_mapping[patient_aadhaar_mapping[aadhaar].prescription_ids[patient_aadhaar_mapping[aadhaar].prescription_ids.length - 1]].marked == false){\n            uint last_presc_id = patient_aadhaar_mapping[aadhaar].prescription_ids[patient_aadhaar_mapping[aadhaar].prescription_ids.length - 1];\n            return (prescription_id_mapping[last_presc_id].medicine);\n        } else {\n            return(\"Prescription already marked\");\n        }\n    }\n\n    function mark_prescription(uint aadhaar, uint pharmacy_id, string memory time) public {\n        if(prescription_id_mapping[patient_aadhaar_mapping[aadhaar].prescription_ids[patient_aadhaar_mapping[aadhaar].prescription_ids.length - 1]].marked == false){\n            uint last_presc_id = patient_aadhaar_mapping[aadhaar].prescription_ids[patient_aadhaar_mapping[aadhaar].prescription_ids.length - 1];\n            prescription_id_mapping[last_presc_id].pharmacy_id = pharmacy_id;\n            prescription_id_mapping[last_presc_id].marked = true;\n            prescription_id_mapping[last_presc_id].timestamp_marked = time;\n        } else {\n            revert(\"Prescription already marked\");\n        }        \n    }\n\n}",
  "sourcePath": "/home/n3m0/Documents/doctor-portal/contracts/med_chain.sol",
  "compiler": {
    "name": "solc",
    "version": "0.5.8+commit.23d335f2.Emscripten.clang"
  },
  "schemaVersion": "3.0.16",
  "updatedAt": "2019-11-09T19:21:05.069Z",
  "devdoc": {
    "methods": {}
  },
  "userdoc": {
    "methods": {}
  }
}